:1000000070FF0020490D03082DAF0208E5A100088C
:1000100041AF020855AF020869AF020800000000B6
:100020000000000000000000000000007DAF02089A
:1000300091AF020800000000CD460008EFA00008C4
:10004000ED0F0308F10F0308F50F0308D5B40208FC
:10005000FD0F030831B6020887B1020817B3020882
:10006000A3B30208111003081510030819100308A0
:100070001D10030821100308251003082910030888
:100080002D10030831100308351003083910030838
:100090003D100308411003084510030849100308E8
:1000A0004D10030851100308551003085910030898
:1000B0005D10030861100308651003086910030848
:1000C0006D1003087110030875100308A9AF02082A
:1000D0007D100308811003088510030889100308A8
:1000E00041B4020895B50208951003089910030859
:1000F0009D100308A1100308A5100308A910030808
:10010000AD100308B1100308B5100308B9100308B7
:10011000BD100308C1100308C5100308C910030867
:10012000CD100308D1100308D5100308D910030817
:10013000DD100308E1100308E5100308E9100308C7
:10014000ED100308F1100308F5100308F910030877
:10015000FD10030801110308051103080911030824
:100160000D110308111103081511030819110308D3
:100170001D11030821110308251103082911030883
:100180002D1103083111030838B5DFF8D04C0020D9
:10019000E06120626062A062E062A081DFF8C00CD2
:1001A000E063DFF8C00C206460643220E0824FF42A
:1001B00096702083DFF8B05C4FF42072002105F1C7
:1001C000400002F023F84FF42072002105F5307052
:1001D00002F01CF89022002105F5B86002F016F834
:1001E00040220021284602F011F840220021DFF8C9
:1001F000400D02F00BF840220021DFF8380D02F02C
:1002000005F840220021DFF8300D01F0FFFF402209
:10021000002105F5A86001F0F9FF4022002105F555
:10022000B06001F0F3FF40220021DFF8100D01F073
:10023000EDFF40220021DFF8080D01F0E7FF052265
:100240000021204601F0E2FF05220021DFF8F40C36
:1002500001F0DCFF05220021DFF8D80D01F0D6FF08
:100260000020A0822063A0632061A0606063E0643E
:100270000220A07331BD80B50FF2100002F05CF8CF
:10028000DFF8D80B0021017301BD00004C5420534E
:10029000746F70007047DFF8C41B4FF47A725043DC
:1002A000C86301460FF2040002F046B84C542053D4
:1002B0005044202564000000DFF8A02B4FF47A7131
:1002C00048431064014651640FF2040002F034B850
:1002D0004C5420575044202564000000DFF87C1B5C
:1002E000C88201460FF2040002F026B84C54205395
:1002F0005220256400000000DFF8601B08830146DF
:100300000FF2040002F018B84C542053415220253B
:10031000640000000EB410B587B0DFF81C4DBDF8C6
:100320006E0000281ED1DFF8140DD0E90023CDE9BE
:100330000223D4E90001CDE90001DDE9022300F048
:100340008AFFDFF8181BC96B4FF47A72424391425F
:1003500006D201460FF2280001F0EEFF01200AE06C
:10036000002008E004A802F041FA204604A9052272
:1003700002F0E2FA002007B010BC5DF810FB0000AC
:100380004C542053544F5020436865636B696E672B
:1003900020256400DFF8C40A01210162C161002147
:1003A0008162C1627047DFF8B40A01214162C16114
:1003B0007047DFF8A80AC0697047DFF8A00A00217B
:1003C000C1610FF2080001F0B7BF00004C54205289
:1003D000455345545F434D4452440000DFF87C0AC6
:1003E000002101620FF2040001F0A6BF4C5420521C
:1003F000455345545F504F5352455100DFF85C0A56
:10040000002141620FF2040001F096BF4C542052CB
:10041000455345545F504F4941434B00DFF83C0A78
:10042000012181620021C16201727047DFF82C0A4C
:100430000121C16270472DE9FC4106460F469046F6
:10044000DFF8EC4ADFF8205A20462946402202F025
:1004500083FA85ED000B85ED021B85ED042B85F8F5
:10046000296085F82A7085F82B80D4E904230020C0
:10047000014602F0ADFA0ED1D4E9002302F0A8FA49
:1004800009D1D4E9022302F0A3FA04D12046294677
:10049000402202F061FA95ED020B8DED000BD5E9DB
:1004A00000230FF20C0001F047FFBDE8F3810000CC
:1004B0004C54205550504F5320256620256600008F
:1004C00030B583B0DFF89449A06A012815D1DFF870
:1004D000645A2846DFF89019402202F03DFA95ED63
:1004E000020B8DED000BD5E900230FF2140001F093
:1004F00023FF0020A06201203EBD00203EBD000081
:100500004C54203173742025662C20256600000091
:1005100030B583B0DFF84449A06A012815D1DFF86F
:10052000185A2846DFF84019402202F015FA95EDD6
:10053000020B8DED000BD5E900230FF2140001F042
:10054000FBFE0020A06201203EBD0020A0623EBD57
:100550004C5420326E642025662C20256600000055
:100560000020DFF8F818CA6A012A01D1C862012008
:1005700070470FB400B59DB0DDE92E2302F038FAC4
:10058000CDE90C01DDE92001DDE9302302F030FA8C
:10059000CDE90E010CA984B06846402202F0DCF9D6
:1005A0000FBC00F05FFD53EC102B0020DFF8541E51
:1005B00002F0DEFA41EC100B1DB05DF814FB0000F8
:1005C0000FB470B52DED048B9CB0DFF89058687AAD
:1005D000002801D1002043E00A2801D30A2600E0C8
:1005E000AE7A9FED9A8B002422E0DFF87C1801EBB5
:1005F000801000F530710CA8402202F0ADF924A95A
:1006000084B06846402202F0A7F90FBCFFF7B1FFA3
:10061000B0EE409AF0EE609A51EC190B53EC182BA7
:1006200002F084FB03D2B0EE498AF0EE698A641CC2
:10063000E4B22046B042D8DB288B02F09DFB024694
:100640000B4651EC180B02F071FB01D2002007E0C1
:1006500053EC182B0FF2140001F06EFE0120E86439
:100660001CB0BDEC048B70BC5DF814FB4C542053E3
:1006700041204F55542025660000000030B585B05C
:10068000DFF8E44794F969058DF8000004F2695039
:1006900090F901108DF8011090F902008DF8020018
:1006A000B4F86C05ADF80300DFF89059D5E9000106
:1006B000CDE90201DDE90223DDE9000100F0CBFD17
:1006C000C4F87805DFF89407D5E90023C0E90023D2
:1006D00005B030BD0FB42DE9F0432DED088B85B08A
:1006E000DFF87847DFF88057A07A05EB80109DEDA2
:1006F000140B80EDA00B00F520709DED160B80ED26
:10070000020B9DED180B80ED040B2299816394F888
:100710000990B9F10A0F02D34FF00A0800E0C84669
:100720009FEDBF8BB0EE489AF0EE689AB0EE48AA03
:10073000F0EE68AA00261DE005EB861753EC182B97
:10074000D7E9B00102F026FB41EC180B07F5307732
:1007500053EC192BD7E9020102F01CFB41EC190BF9
:1007600051EC1A0BD7E9042302F014FB41EC1A0BED
:10077000761CF6B24645DFDB404602F0FDFA41EC5E
:100780001B0B51EC180B53EC1B2B02F077FB05F500
:10079000A862C2E9000105F2405651EC190B53EC76
:1007A0001B2B02F06BFBC6E9020151EC1A0B53EC58
:1007B0001B2B02F063FBC6E9040195F969058DF86E
:1007C000000005F2695797F901008DF8010097F9CB
:1007D00002008DF80200B5F86C05ADF80300DFF8F3
:1007E0005C88D8E90001CDE90201DDE90223DDE9F9
:1007F000000100F030FD0246C5F87825D8E9000177
:10080000C4E900010192B87800907B7895F86925D9
:1008100049460FF2142001F08FFD96ED020B8DED8D
:10082000000B05F5A860D0E900230FF2606001F02D
:1008300083FD0320A0730FF2084001F07DFD05B099
:10084000BDEC088BBDE8F0035DF814FB0000000070
:10085000006AF8400FB42DE9F0472DED088B86B003
:10086000DFF8D047DFF8D4A7DAE90001CDE90401C9
:10087000D4E90001CDE90201DDE9042300F0EBFC3D
:10088000DFF8D855A97ADFF8E06506EB81129DED17
:10089000160B82EDB00B02F530739DED188B83EDD6
:1008A000028B9DED1A9B83ED049B237882F8E9323D
:1008B00002F2E92367785F70A7789F7000B2C2F8F0
:1008C000F802481CA872C0B20A2801D10020A87200
:1008D000687A00F1010985F809905FFA89F9A9F1B0
:1008E000010002F03FFA41EC1A0B06F2405853ECBB
:1008F0001A2BD8E9020102F03BF953EC182B02F055
:1009000049FA41EC180B53EC1A2BD8E9040102F018
:100910002FF953EC192B02F03DFA41EC190B484624
:1009200002F02AFA41EC1B0B53EC1A2B06F5A860D7
:100930004168006802F01CF9DDE9162302F02AFA8A
:1009400053EC1B2B02F09AFA06F5A862C2E90001EB
:1009500051EC180B53EC1B2B02F090FAC8E9020182
:1009600051EC190B53EC1B2B02F088FAC8E9040177
:1009700006F26957484601280AD1207886F86905A9
:1009800060787870A078B870B4F80300A6F86C05A9
:1009900096F969058DF8000097F901008DF80100BE
:1009A00097F902008DF80200B6F86C05ADF8030067
:1009B000DAE90001CDE90201DDE90223DDE9000108
:1009C00000F049FC0246C6F87825DAE90001C5E9DD
:1009D00000010192B87800907B7896F86925494625
:1009E0000FF2440001F0A8FC98ED020B8DED000B16
:1009F00006F5A860D0E900230FF2904001F09CFCBE
:100A0000687A012805D10120A8730FF28C4001F00B
:100A100093FC06B0BDEC088BBDE8F0075DF814FB55
:100A200000000000000000004C54202564205350BA
:100A30002025643A25643A25642C202564000000B2
:100A40000FB42DE9F04F2DED0A8B87B0DFF8ECB530
:100A5000DBE90001CDE90401DFF8E804D0E9002377
:100A6000CDE90223DDE90423DDE9020100F0F3FB17
:100A70008046DFF8E843A07A461E36B2002E01D544
:100A80000A3636B294F809A0504602F075F941ECE6
:100A9000180BF54D05EB861653EC182B05F5A860E1
:100AA0004168006802F064F8D6E9B02301F0A0FFC5
:100AB00041EC190B06F5307705F2405953EC182B31
:100AC000D9E9020102F054F8D7E9022301F090FFBE
:100AD00041EC1A0B53EC182BD9E9040102F048F849
:100AE000D7E9042301F084FF41EC1B0B9FEDDFCB22
:100AF000D6E9B023DDE91A0102F04CF953EC1C2BC6
:100B000002F036F8C6E9B001D7E90223DDE91C019D
:100B100002F040F953EC1C2B02F02AF8C7E902015D
:100B2000D7E90423DDE91E0102F034F953EC1C2B54
:100B300002F01EF8C7E90401C7F8388053EC1A2BFD
:100B4000D7E9020102F026F941EC1A0B51EC1B0B1C
:100B5000D7E9042302F01EF941EC1B0B51EC190BF1
:100B6000D6E9B02302F016F953EC182B02F086F9FF
:100B700005F5A862C2E9000151EC1A0B53EC182BE1
:100B800002F07CF9C9E9020151EC1B0B53EC182B64
:100B900002F074F9C9E9040195F969058DF80000BE
:100BA00005F2695696F901008DF8010096F90200E8
:100BB0008DF80200B5F86C05ADF80300DBE9000123
:100BC000CDE90201DDE90223DDE9000100F043FB8C
:100BD0000246C5F87825DBE90001C4E9000101926D
:100BE000B0780090737895F8692551460FF2380077
:100BF00001F0A2FB99ED020B8DED000B05F5A8604D
:100C0000D0E900230FF2842001F096FB0320A073AB
:100C10000FF22C0001F090FB07B0BDEC0A8BBDE891
:100C2000F00F5DF814FB00004C5420256420552D76
:100C300053502025643A25643A25642C202564000D
:100C40004C5420415245412053544159000000006A
:100C50000FB42DE9F0472DED0A8B86B09FED838B05
:100C6000DDE91823DDE9280102F094F853EC182B94
:100C700001F07EFF41EC190BDDE91A23DDE92A01C1
:100C800002F088F853EC182B01F072FF41EC1A0BBC
:100C9000DDE91C23DDE92C0102F07CF853EC182B74
:100CA00001F066FF41EC180BA64CDFF890A3DAE9DF
:100CB0000001CDE90401D4E90001CDE90201DDE93B
:100CC000042300F0C8FA654DA97A674E06EB81123D
:100CD00082EDB09B02F5307383ED02AB83ED048BA4
:100CE000237882F8E93202F2E92367785F70A77807
:100CF0009F70B4F80330A2F8EC32C2F8F802481C36
:100D0000A872C0B20A2801D10020A872687A00F146
:100D1000010985F809905FFA89F9A9F1010002F04B
:100D200021F841EC1B0B06F2405853EC1B2BD8E981
:100D3000020101F01DFF53EC1A2B02F02BF841ECDD
:100D40001A0B53EC1B2BD8E9040101F011FF53ECF3
:100D5000182B02F01FF841EC180B484602F00CF873
:100D600041EC1C0B53EC1B2B06F5A8604168006896
:100D700001F0FEFE53EC192B02F00CF853EC1C2B87
:100D800002F07CF806F5A862C2E9000151EC1A0BEA
:100D900053EC1C2B02F072F8C8E9020151EC180B5D
:100DA00053EC1C2B02F06AF8C8E9040106F26957FB
:100DB000484601280AD1207886F86905607878705D
:100DC000A078B870B4F80300A6F86C0596F9690528
:100DD0008DF8000097F901008DF8010097F90200E5
:100DE0008DF80200B6F86C05ADF80300DAE90001F1
:100DF000CDE90201DDE90223DDE9000100F02BFA73
:100E00000246C6F87825DAE90001C5E90001019239
:100E1000B87800907B7896F8692549460FF254001F
:100E200001F08AFA98ED020B8DED000B06F5A86033
:100E3000D0E900230FF2540001F07EFA687A01280D
:100E400005D10120A8730FF2500001F075FA06B029
:100E5000BDEC0A8BBDE8F0075DF814FB3CD5002023
:100E6000E093040060E31600E87100200000000039
:100E70000000E03F4C5420256420532D5350202582
:100E8000643A25643A25642C202564004C542025BE
:100E900066202566000000004C5420415245412048
:100EA000494E00000FB410B584B0DFF8840A016B1E
:100EB00001EBC102DFF87C3A03EBC20202F5B86332
:100EC0009DED060B83ED000B9DED080B83ED020BF2
:100ED00008AC94ED021B83ED041B9DF8413082F8B1
:100EE000E93502F2E9530DF1410464785C700DF1CB
:100EF0004104A4789C70BDF84430A2F8EC3502F2AD
:100F0000EC5211ABDB685361C48A1483048B5483A5
:100F1000002901D10121016302938DED000BDDE970
:100F200006230FF2240001F007FA1FBC5DF814FB42
:100F300018D7002058D7002098D70020D8D70020F5
:100F400018D80020A8DE00204C54205553412025FD
:100F500066202566202564000FB4F0B585B0DFF863
:100F6000D0494825DFF8CC69206B05FB006000F50F
:100F7000B8619DED0A0B81ED000B9DED0C0B81ED31
:100F8000020B0CAA92ED020B81ED040B9DF851109F
:100F900080F8E91500F2E9520DF151035B785370C6
:100FA0000DF15107BF789770BDF95420A0F8EC25DA
:100FB0008DF804108DF805308DF80670ADF8072017
:100FC00094F900008DF80C0060788DF80D00A07881
:100FD0008DF80E00B4F80300ADF80F00DDE903232F
:100FE000DDE9010100F037F9074600979DF9063069
:100FF0009DF905209DF904100FF2440001F09CF9C1
:10100000206B05FB0061C1F8007601F20061E28A05
:101010008A80228BCA80022801D2401C20630220D1
:10102000A0730FF2340001F087F905B0F0BC5DF851
:1010300014FB0000B0DE0020B8DE0020A0DE00209F
:101040004C5420535341312025643A25643A256499
:101050002C202564000000004C54204152454120C2
:101060004F5554000FB430B52DED048B8DB006AA4A
:1010700008A90AA89DED140B00F06EF8DDE90A231B
:101080000020DFF8B41801F073FD04460D46DDE9D9
:101090000823DFF8A808DFF8A81801F069FD224648
:1010A0002B4601F077FE04460D46DDE90623DFF806
:1010B0009408DFF8941801F05BFD22462B4601F0FE
:1010C00069FE41EC180B00AA02A904A89DED160BBD
:1010D00000F042F8DDE904234FF03330DFF86C18FC
:1010E00001F046FD04460D46DDE90223DFF8600805
:1010F000DFF8601801F03CFD22462B4601F04AFE65
:1011000004460D46DDE90023DFF83008DFF8481813
:1011100001F02EFD22462B4601F03CFE41EC190B5E
:1011200053EC182B51EC180B01F022FD04460D4630
:1011300053EC192B51EC190B01F01AFD22462B46EA
:1011400001F028FE41EC100B01F0BCFF0DB0BDEC2E
:10115000048B30BC5DF814FB70B52DED068BB0EE42
:10116000408AF0EE608A04460D46164651EC180B94
:1011700053EC182B01F03CFC41EC190B9FED9FAB9D
:1011800053EC192B51EC1A0B01F0F2FC41EC100B53
:1011900084ED008B85ED000B53EC1A2B01F06EFEF5
:1011A00002460B4651EC190B01F022FC0022DFF83D
:1011B000AC3701F0DDFCC6E90001BDEC068B70BD6B
:1011C000DFF8B00D006A7047DFF8A80D406A70477D
:1011D00080B540220021DFF8880701F017F840228F
:1011E0000021DFF8800701F011F8DFF8880D0021F9
:1011F00041728172016181820FF20C00BDE80240F0
:1012000001F09AB8000000004C5420524553455458
:101210005F41535000000000DFF8580D006B70472D
:1012200000B5DFF8101701F5B06001F5A8614022A4
:1012300001F092FBDFF83C0D0021016300BDC9B253
:1012400001EBC102DFF8381D01EBC20101F5B86105
:10125000482201F081BB3FB54FF47A704EF6602111
:10126000DFF8202D9DF900309DF901404C4302FB31
:1012700003439DF9024014FB0033BDF9034003FA18
:1012800084F39DF908409DF90950694302FB04115C
:101290009DF90A2012FB0010BDF90B1000FA81F035
:1012A000984204DADFF8E01C0818C01A00E0C01AFF
:1012B00001F058FDDFF8D42CDFF8D43C01F058FCE5
:1012C00004B0BDE8304001F07DBF2DE9F64382B0A7
:1012D00081460B98BDF90B404EF66025DFF8A46CF3
:1012E0009DF908109DF909206A4306FB01219DF92B
:1012F0000A204FF47A7712FB071101FA84F1412892
:1013000008D15F18DFF88C0C87420BD3DFF8880C0C
:10131000C71907E0994204D2DFF86C0C4018C71ACD
:1013200000E0CF1A384601F027FD0022DFF86C3CC0
:1013300001F0A4FD01F046FF80465FFA88F806FB45
:101340001876304601F018FD0022DFF8543C01F019
:1013500095FD01F037FFC0B28DF8008001468DF891
:10136000011005FB106001F007FDDFF8202CDFF80D
:10137000203C01F0FDFB01F025FF8DF80200ADF8E7
:101380000340484600A9052201F0D6FA04B0BDE8A2
:10139000F08310B50024DFF89C05D0F87815D0F85C
:1013A000B825914216D190F8691590F8A925914277
:1013B00010D100F2A95100F2695042784B789A425C
:1013C00008D180788978884204D10FF23C0000F07F
:1013D000B3FF11E0DFF89C0BC16C012907D1012498
:1013E0000021C1640FF6D83000F0A6FF04E001240C
:1013F0000FF6D43000F0A0FF204610BD0000000022
:1014000000004E4000408F404C54205341000000EB
:1014100000B58DB0DFF81805407A00280AD0DFF853
:10142000841B84B06846402201F096FA0FBCFFF797
:1014300039FD06E00FF698300DB05DF804EB00F0D2
:101440007BBF0DB000BD00001CB5DFF8E444217B7C
:1014500061732073401E05284DD8DFE800F0034C6F
:1014600016222C4100A801F0C1F9DFF83C0B00A9BD
:10147000052201F061FA616C21640020E0720FF630
:101480005C30BDE81C4000F057BF00A801F0AEF989
:10149000DFF8140B00A9052201F04EFAA06BA0643E
:1014A00013BD00A801F0A2F9DFF8FC0A00A905228B
:1014B00001F042FA13BD00202061A08240220146C3
:1014C000DFF8A00400F0A2FE00A801F08FF9DFF819
:1014D000D80A00A9052201F02FFAA06BA06413BD61
:1014E00000A801F083F9DFF8C00A00A9052201F085
:1014F00023FAA06BA06413BD0CB400B583B09DF9B2
:1015000039108DF800100DF1390191F901108DF8A5
:1015100001100DF1390191F902108DF8021000212E
:10152000ADF8031000A9052201F006FA0EBC5DF823
:101530000CFB00002DE9F04F2DED0A8B9DB082468B
:101540009FED558BDFF8E883B8F81000B8F81290DB
:10155000814502D25FFA89F901E0C0B28146B8F94B
:101560001400461E00D50A36DFF8C8B30BEB861709
:1015700097ED109B97ED12AB97ED14BB01243CE067
:10158000301A00D50A300BEB801505F140010CA88C
:10159000402201F0E1F907F1400184B068464022A1
:1015A00001F0DAF90FBCFEF7E4FFB0EE40CAF0EE4E
:1015B00060CA51EC180B53EC1C2B01F0B7FB03D2A3
:1015C000B0EE4C8AF0EE6C8A53EC1B2BD5E914017B
:1015D00001F0E0FB41EC1B0B53EC192BD5E910019A
:1015E00001F0D8FB41EC190B51EC1A0BD5E9122391
:1015F00001F0D0FB41EC1A0B641CE4B220464845D4
:10160000BEDB484601F0B8FB41EC1C0B51EC1B0B58
:1016100053EC1C2B01F032FCCAE9040151EC190B0C
:1016200053EC1C2B01F02AFCCAE9000151EC1A0B07
:1016300053EC1C2B01F022FCCAE90201B8F810009F
:10164000B8F8121088421ED207F140010CA84022BF
:1016500001F082F9DFF8541984B06846402201F0A5
:101660007BF90FBCFEF785FFB0EE40CAF0EE60CA12
:1016700051EC180B53EC1C2B01F058FB03D2B0EECD
:101680004C8AF0EE6C8AB0EE480AF0EE680A1DB0A3
:10169000BDEC0A8BBDE8F08F0000000000000000E8
:1016A0000FB42DE9F0412DED068BA0B02CA984B02C
:1016B0006846402201F050F90FBCFEF781FF9C4DB7
:1016C00068639C4E012812D10020686306F5A8616A
:1016D00084B06846402201F03FF90FBCFFF73CFCA4
:1016E000FFF776FD0FF6041000F026FE18E1B5F9BD
:1016F000144006EB841040302CA9402201F02CF954
:10170000601CA88200B20A2801D10020A882288A81
:101710000A2801D2401C2882688A401C688231460F
:1017200082B06846402201F017F90CBC0EA8FFF702
:10173000E3FE288A0A2801D2002700E02F7D894C89
:10174000D4E900010022134601F042F92FD1D4E977
:10175000020101F03DF92AD1D4E9040101F038F980
:1017600025D106EB8716DFF8488896F9690088F8D6
:10177000000006F2690090F9011088F8011090F954
:10178000020088F80200B6F86C00A8F80300DFF841
:101790001C0806F14001402201F0DEF8204606F167
:1017A0004001402201F0D8F80020A063B8E010A862
:1017B000FFF7C0FEB0EE408AF0EE608ADFF8F087F7
:1017C000288B400801F0D8FA53EC182B01F0AEFA40
:1017D00028D206EB871696F9690088F8000006F211
:1017E000690090F9011088F8011090F9020088F85A
:1017F0000200B6F86C00A8F80300DFF8B00706F1A5
:101800004001402201F0A8F8204606F140014022A4
:1018100001F0A2F80020A06368820FF2E07000F0EF
:101820008BFD7DE0D8E90001CDE90001DDE90E2363
:10183000FFF711FD064631460FF2D07000F07CFD37
:10184000286C4FF47A717143884269D26F8A042FF1
:1018500066D3A06B002816D19DED100B84ED000B14
:101860009DED120B84ED020B9DED140B84ED040B2A
:10187000A663214684B06846402201F06DF80FBC93
:10188000FEF7E8FF43E0781E01F06CFA41EC190B1B
:10189000384601F071FA41EC1A0B51EC190BD4E9FE
:1018A000002301F065F9DDE92C2301F073FA53EC14
:1018B0001A2B01F0E3FAC4E9000151EC190BD4E949
:1018C000022301F055F9DDE92E2301F063FA53EC10
:1018D0001A2B01F0D3FAC4E9020151EC190BD4E937
:1018E000042301F045F9DDE9302301F053FA53EC0C
:1018F0001A2B01F0C3FAC4E90401A663214684B09F
:101900006846402201F028F80FBCFEF7E3FEA06B0A
:10191000009053EC182B698A0FF2007000F00CFD58
:1019200020B0BDEC068BBDE8F0015DF814FB7047FC
:101930003CD50020E871002000C05B409A9999993D
:101940009999FD3F5839B4C876BE9F3F333356400E
:10195000AE47E17A14AEF73F9999993F0020AC4029
:1019600028770020D8D700200EB470B52DED028B5B
:101970009FB00646DFF8FC45A06B0818A06300A8DE
:1019800000F034FFDFF82C56284600A9052200F0AD
:10199000D3FF207B062800F2E682DFE810F0070084
:1019A00012007400C10069011302BF02FFF710FCAE
:1019B0000120FFF749FD217B0FF2786000F0BCFCAD
:1019C000D1E225A983B06846582200F0C5FF0EBCBD
:1019D000304680B2FEF79EFC002843D0D5E90001D6
:1019E000CDE903014D200090E36BDDE903010A46D8
:1019F000014601A8FFF769FCDFF8BC0501A9052233
:101A000000F09AFFDFF8781582B06846402200F0B7
:101A1000A3FF0CBC1CA8FFF76FFDD5E90001CDE9C1
:101A20000001DDE90023DDE91C01FFF714FC054698
:101A30003D2D07DB29460FF20C6000F07DFCFEF720
:101A4000A9FC06E00120A06229460FF2086000F020
:101A500073FC0220FFF7F8FC217B0FF2086000F016
:101A60006BFC80E2A06A012840F07D820020A06229
:101A7000DFF80C1584B06846402200F06DFF0FBC03
:101A8000FFF70EFE6FE2FEF71BFD002834D00320A7
:101A9000FFF7DAFC0FF2DC5000F04EFC607A002811
:101AA0001FD0DFF8D454294684B06846402200F0A5
:101AB00053FF0FBCFEF784FD6063012811D10020A5
:101AC0006063DFF8E01484B06846402200F044FF11
:101AD0000FBCFFF741FAFFF77BFB0FF2AC5000F0B1
:101AE0002BFCDFF89C1484B06846402200F034FFE1
:101AF0000FBCFFF7D5FD36E2FEF732FD002800F0FF
:101B00003282207A401C2072C0B2032880F04281C9
:101B10000120FFF799FC0FF28C5000F00DFC22E23F
:101B2000A06A012851D10020A062DFF85464607AD5
:101B300000281DD0314684B06846402200F00CFFDA
:101B40000FBCFEF73DFD6063012811D100206063EA
:101B500006F5A86184B06846402200F0FDFE0FBC87
:101B6000FFF7FAF9FFF734FB0FF2505000F0E4FBF7
:101B7000314684B06846402200F0EEFE0FBCFFF70D
:101B80008FFD31460CA8402200F0E6FEDFF8E81396
:101B900084B06846402200F0DFFE0FBCFEF7E9FC8F
:101BA000B0EE408AF0EE608AE08A01F0E5F853EC8E
:101BB000182B01F0BBF808D20120FFF745FC53ECCD
:101BC000182B0FF2045000F0B7FBD5E90001CDE966
:101BD0000201DFF8D403D0E90023CDE90023DDE9D9
:101BE0000223DDE90001FFF736FBA16BA26C8E1A20
:101BF000332E08D30120FFF727FC31460FF2E040D7
:101C000000F09AFBAFE1216C4FF47A7250438142AD
:101C100080F0A981DA4982B06846402200F09CFE3B
:101C20000CBC1CA8FFF768FCD5E90001CDE9000158
:101C3000DDE90023DDE91C01FFF70DFB05463D2D25
:101C400007DBFEF7A7FB29460FF2AC4000F074FB60
:101C500006E00120A06229460FF2F83000F06CFB8C
:101C60000420FFF7F1FB0FF2A04000F065FB7AE1E2
:101C7000FEF74EFC002800F08280C04E314684B052
:101C80006846402200F068FE0FBCFEF799FC6063D6
:101C9000012818D100206063C24984B06846402200
:101CA00000F05AFE0FBCFFF757F9FFF791FA0FF259
:101CB000684000F041FB607B052840F05481012022
:101CC000FFF7C2FB4FE1AC4D31460CA8402200F0BB
:101CD00043FE294684B06846402200F03DFE0FBC1A
:101CE000FEF747FCB0EE408AF0EE608AE08A01F031
:101CF00043F802460B4651EC180B01F017F82BD2B3
:101D0000607B052831460CD184B06846402200F043
:101D100023FE0FBCFEF794FE0FF2084000F00CFB10
:101D200010E00CA8402200F017FE294684B0684657
:101D3000402200F011FE0FBCFEF78AFF0FF2F030D8
:101D400000F0FAFAFEF72FFB0520FFF77DFB0FF2FC
:101D5000E83000F0F1FA06E10120FFF775FB53ECE3
:101D6000182B0FF2E83000F0E7FA854984B0684696
:101D7000402200F0F1FD0FBCFFF792FCF3E0FEF70C
:101D8000EFFB002800F0EF80207A401C2072C0B2E8
:101D9000032807D30620FFF757FB0FF2F82000F0C7
:101DA000CBFAE0E0854820640320FFF74DFB217A61
:101DB0000FF2AC3000F0C0FA216C0FF2202000F0DE
:101DC000BBFAD0E0A06A012846D10020A0626C4E88
:101DD000607A00281DD0314684B06846402200F069
:101DE000BBFD0FBCFEF7ECFB6063012811D10020A6
:101DF000606306F5A86184B06846402200F0ACFD3F
:101E00000FBCFFF7A9F8FFF7E3F90FF26C3000F011
:101E100093FA31460CA8402200F09EFD564984B04A
:101E20006846402200F098FD0FBCFEF7A2FBB0EE22
:101E3000408AF0EE608AE08A00F09EFF53EC182B97
:101E400000F074FF08D20120FFF7FEFA53EC182BC4
:101E50000FF2303000F070FAD5E90001CDE902014F
:101E60005148D0E90023CDE90023DDE90223DDE973
:101E70000001FFF7F0F9A16BA26C8E1A332E08D384
:101E80000120FFF7E1FA31460FF2103000F054FA6A
:101E900069E0216C4FF47A72504381423BD2384E54
:101EA00096F929008DF8700006F2290090F90110CA
:101EB0008DF8711090F902008DF87200D5E90001DB
:101EC000CDE90001DDE90023DDE91C01FFF7C3F9DD
:101ED00005463D2D07DBFEF75DFA29460FF2D420BB
:101EE00000F02AFA06E00120A06229460FF2D42071
:101EF00000F022FA0420FFF7A7FAE07A401CE07213
:101F0000C0B203282FD3606C410021640FF2CC00D3
:101F100000F012FA27E0FEF7B1FB24E0A06BA16C01
:101F2000401A33280BD30120FFF78EFA0FF2A820B6
:101F300000F002FA0FF2B42000F0FEF913E0A06AFC
:101F400001280BD10120FFF77FFA0FF2AC2000F03F
:101F5000F3F90FF2982000F0EFF904E0607B042819
:101F600001D1FEF78BFB207B1FB0BDEC028B70BC58
:101F70005DF810FB3CD5002058D7002098D70020F2
:101F8000E871002080EE3600005C2605FCA9F1D245
:101F90004D62503F015C260500A4D9FA40774B41C1
:101FA000004CED4028770020B8DE002018D8002033
:101FB000B0DE0020A0DE0020A8DE0020E0930400B8
:101FC0004C542046550000004C5420444900000069
:101FD0004C54204E6F20504F530000004C542D574E
:101FE00050204348414E4745202564004C5420531F
:101FF000617665205341554D000000004C5420523D
:10200000455345545F474150000000004C54204761
:1020100041204D546D202564000000004C54205395
:102020005020534741522025642C2025662C202522
:10203000640000004C542D434B5F53544F502025F7
:10204000640000004C5420524551504F532D4620FF
:10205000256400004C54204E2D524551504F5320C2
:10206000256400004C542D4745545F315F504F5359
:10207000202564004C542D434B5F555345525F4D12
:102080004F564554000000004C54205353412D46F8
:10209000500000004C542D53535F50415553455F41
:1020A000535300004C542053535F475053204E4F1E
:1020B00054204F4B20317374000000004C542053C7
:1020C00053412D554D0000004C542D434B5F53544C
:1020D0004F502D554D2D6469737420256600000006
:1020E0004C542D434B5F53544F502D554D2D73740D
:1020F00065702025640000004C5420524551504F1B
:10210000532D5320256400004C542D4745545F3215
:102110005F504F53000000004C54205353412D5347
:10212000500000004C5420554454205350000000EF
:102130004C542053535000004C542D434B5F555387
:1021400045525F4C454156494E4700004C542D4383
:102150004845434B5F53544F502D53502025660044
:102160004C542D475053204E4F54204F4B20326E2D
:1021700064202564000000004C54205353412D5529
:102180004C0000004C542D434B5F53544F502D5581
:102190004C20646973742025660000004C542D4364
:1021A0004B5F53544F5020554C207374657020255D
:1021B000640000004C5420524551504F532D554C53
:1021C000202564004C54204E2D524551504F532D24
:1021D000554C2025640000004C54205353204147A7
:1021E00041494E2042592053544550004C542D43F0
:1021F0004B5F53544F5000004C54205353204147E1
:1022000041494E20425920504F53000010B504461A
:1022100010460A460146204601F000F8204610BD4F
:1022200010B5DFF8AC464FF48E7200212046FFF760
:10223000EDFF204610BDDFF89806704710B5FFF798
:10224000EFFF044600231A461146084600F057FAED
:10225000C046C04601F016F8204600F018F801F01C
:1022600068FA204600F0B8F9204600F014F820463D
:1022700000F01EF800F07CF900206072A072E0729D
:102280002073012060730020E075012010BD002143
:10229000C171017231E010B50446DFF8100601F09B
:1022A0009DF8DFF8300601F099F80120607110BD4B
:1022B00010B5044601F0FDF80120A07110BD38B53D
:1022C0000446012501F0A8F9012804D12846E07050
:1022D0000020A0700AE0022804D10020E070284607
:1022E000A07003E00020E070A0700546284632BDD3
:1022F00080B501F0E3FA012002BD10B50446E07993
:1023000001F00AFC0121217010BD70B504460025C2
:10231000E679E171FFF7F1FF002807D02046FFF7CB
:10232000BAFF2046FFF7C4FF012503E0E67120460F
:10233000FFF7E3FF284670BD0EB470B5C1B0054687
:1023400000A84FF4807102F071F9FFF774FF0446A2
:1023500045AB2A464FF4807100A802F06BF900A843
:1023600002F086F9451C00A82818002100F8011C7D
:10237000DFF864653078401C30707078F0210842D6
:1023800002D0992002F090F902F0FBF97078401C1D
:102390007070207E2818FF2810DA207E002803D0D5
:1023A000207E00190A2101762A4600A9207E001904
:1023B000193002F0FDF9207E2818207600A802F0DE
:1023C000B0FB7078F021084202D0992002F06CF93D
:1023D0007078401E7070C0B2002801D102F0CBF9B5
:1023E00003F02BF941B070BC5DF810FB0428DFF856
:1023F000C00403D8DFF8B41401607047DFF8D414C8
:10240000016070472DE9F84305460E4617464FF028
:102410000208DFF8C4446078F021084202D0992015
:1024200002F042F902F0ADF96078401C60709DF84E
:102430000000401E8DF8000017F8019B2846FFF7AA
:10244000D5FF00AB4A463946304601F07EFC0028F5
:1024500010D06078F021084202D0992002F024F9CF
:102460006078401E6070C0B2002801D102F083F98C
:1024700001201CE05FFA88F8424629460FF26840C6
:10248000FFF75AFF4046A0F101080028D9D1607833
:10249000F021084202D0992002F006F96078401E2F
:1024A0006070C0B2002801D102F065F90020BDE8DB
:1024B000F2832DE9F04704460D4616461F4608985C
:1024C000DFF8F08388F80000DFF80C9499F8010039
:1024D000F021084202D0992002F0E6F802F051F90A
:1024E00099F80100401C89F801002046FFF77EFFA3
:1024F0004FF0020A434632463946284601F0D4FCE2
:10250000002813D099F80100F021084202D0992048
:1025100002F0CAF899F80100401E89F80100C0B223
:10252000002801D102F027F901201FE05FFA8AFAA2
:10253000524621460FF2BC30FFF7FEFE5046A0F196
:10254000010A0028D6D199F80100F021084202D0F2
:10255000992002F0A9F899F80100401E89F80100BD
:10256000C0B2002801D102F006F90020BDE8F087D2
:1025700003F098BDF8B5044602270025D74E0DE0BC
:1025800039464F1EC9B200290AD1002804D120695A
:102590000121A9408843206102276D1C152D10DA06
:1025A00056F82500006E006880470128E8D12169AF
:1025B0000122AA401143216156F8251001220A7711
:1025C000E3E72069032803D0022801D0012802D1C3
:1025D00040F480502061F1BD01F0ACBD01F007BEB8
:1025E00081B00022ADF80220ADF80020C0790428A7
:1025F00008D0062809D008280AD009280BD00A28B4
:102600000CD00EE04FF4C8600DE04FF448600AE0D3
:102610004FF4C85007E04FF4FA5004E042F2107053
:1026200001E041F27070ADF802200DE0BDF800202D
:10263000521CADF80020BDF800208242F6DBBDF848
:102640000220521CADF80220BDF802208A4203D2BB
:102650000022ADF80020EEE701B07047417230B5BE
:102660008BB003F0DFFD0446FFF7E5FD054600A84B
:102670002C2101F0DBFF0020ADF82A0001900A2098
:102680008DF8080000208DF809008DF80A00687A9E
:1026900000280DD0002C18D000208DF80000052057
:1026A00001900B208DF8080000A805F065FB0CE0F8
:1026B000002C0AD001208DF80000052001900B208D
:1026C0008DF8080000A805F057FB0BB030BD01F0F5
:1026D000ABBD01F0B3BD01210846F8E70121084672
:1026E000F7E702210120F2E702210120F1E701F0E2
:1026F000AFBD10B50446FFF79EFD447510BDF8B59B
:102700004FF47A743C264FF4616C10FB0CF511FB0E
:10271000065545FA82F504FB0535674F97F900E049
:102720001EFB0CFC97F901E01EFB06C697F902C0E0
:1027300046FA8CF6B7F903C004FB06C4AC4206D3D4
:102740002A4621460FF2B810BDE8F840F4E50FD252
:102750002E1BA6F2D17CDFF888E1F44508D333467E
:102760002A4621460FF2A81001B0BDE8F040E3E58B
:102770003870002801D5183038707970BA70A7F811
:102780000330F1BD10B504002FD003F000FE4A491C
:102790008A68002A00D0841AB1F80320A218A1F890
:1027A000032012B2B2F57A7F06DBA2F57A72A1F8A5
:1027B00003208A78521C8A7091F902203C2A04DB9B
:1027C0003C3A8A704A78521C4A7091F901203C2A9E
:1027D00004DB3C3A4A700A78521C0A7091F90020D6
:1027E000182A01DB00220A70886010BD32490522D8
:1027F00000F0A2B8000000000FB470B52DED028B00
:1028000014462E4D204600F0B7FA00222C4B00F063
:1028100035FB286169619FED2B8B069800F0ACFABF
:1028200053EC182B00F02AFB28606960079E3046A5
:1028300000F0A2FA53EC182B00F020FBA860E9602E
:102840009DF82400287605F118009DF825104170A8
:102850009DF8261081709DF82710C1709DF82810F2
:102860000171BDF8290000F087FA184A1D4B00F0ED
:102870007FF905F0A9FBC5F81D00BDF82B00A5F8F0
:1028800021009DF82D0085F8230023463246069945
:102890000FF29000FFF750FDBDEC028B70BC5DF8AD
:1028A00014FB0649242200F047B800000054004001
:1028B000183A002042DF002080DD0020DCD9002013
:1028C00000408F400000000080842E413BDF4F8D90
:1028D0009CBC00200058004024390020000000204B
:1028E0005F4C2605976EA23F495745202564202559
:1028F0006400000049524520256420256400000042
:1029000041542D53657454533120256420256400AF
:1029100041542D536574545332202564202564207E
:102920002564000050443A20536574506F7320258D
:10293000642025642025640062B38B0708D0521EF2
:1029400011F8013B00F8013B00F024808B07F6D121
:10295000830740F0208000BF103A07D330B4B1E8BD
:102960003810103AA0E83810F9D230BC530724BF11
:10297000B1E80810A0E8081044BF51F8043B40F843
:10298000043BD20724BF31F8022B20F8022B44BFAE
:102990000B7803707047083A07D3B1E80810083A7B
:1029A00040F8043B40F804CBF7D25307E4E750F873
:1029B000041B61B150F8042BD30744BFA9F10103F4
:1029C0009A18002342F8043B091FFAD1EFE7704739
:1029D00090420CD141EA030C50EA4C0C07D09942CA
:1029E00005D14FF4001C1CEB410F38BF89427047E2
:1029F00070B44FF0004591EA030F44BF6B4000F004
:102A0000D3B900BF841A71EB030604D26E40001BD9
:102A1000B141121973414FF4001C1CEB410F34BF3C
:102A20007CEB430684E00C0DA4EB1356362E7DDCC4
:102A3000012E43DC45EAC32343EA525312BFD202BC
:102A400092025B08240545EAC12141EA5051D2EBCC
:102A5000C020994125D407D1B0FA80F610FA06F1CA
:102A600064D00020203608E0B1FA81F6B140C6F10A
:102A7000200220FA02F21143B0404FEAF474B4EBA2
:102A8000465434F001064FEA74040AD8D6F500160D
:102A9000760D04F00044F04061FA06F25040F14037
:102AA0004840C00A40EA415021F0004128BF5FEA97
:102AB000500550F1000044EBD12137E045EAC32333
:102AC000DB0A45EAC121C90AB6F120050EDD42EA5A
:102AD0000242120CC5F1200603FA06F6EB4042EA68
:102AE00006056D42984161F100010DE062FA06F5BC
:102AF000F240554063FA06FC82EA0C02F3405A4069
:102B00006D42904161EB030111F4801F05D1641EF9
:102B1000620502D06D004041494121F48011430813
:102B200075F1004350F1000041EB045170BC704757
:102B30001CEB410F15D223F0004352EA43060BD0A1
:102B40004FEA4C0CBCEB410F04D80C0D661E342E22
:102B5000B7DDEBE7801A994150EA410608BF002132
:102B6000E4E708BF1CEB430F28BF6FF00001DDE76F
:102B7000B0B581EA030C0CF0004C40F2FF7515EA89
:102B800011541DBF15EA1357AC42AF4239E0E419A6
:102B900023EA455343F48013C90241F0004141EA5E
:102BA000505EC7021100A7FB020200284FF0000090
:102BB000EEFB01204FF00001E3FB072118BF42F0BC
:102BC0000102401800214941E3FB0E01A4F5806495
:102BD0000F0302D252004041494154F101046CDD1F
:102BE000470872F1004250F1000051EB0451A1F589
:102BF00080115CBF41EA0C01B0BD4CEA05510020D8
:102C0000B0BD05EA1357AC4214BFAF4241E050EAF1
:102C1000410E1CBF52EA430E02E061460020B0BDE7
:102C200024423C441BD15FEA070EF6D0090302BFE1
:102C300001460020AEF1140EB1FA81F7AEEB0704A5
:102C400001FA07FE0C37C7F1200100FA07F7C84068
:102C50004EEA000E23EA455343F48013A2E733F013
:102C60000043B3FA83F704BFB2FA82FE77440B3F06
:102C7000E41BB7F1200E2FBF02FA0EF3BB40C7F1E1
:102C8000200E22FA0EFE38BF43EA0E03BA40641C3F
:102C900082E750EA410E14BF52EA430E6FF0000182
:102CA0004FF4001717EB430F8ABF194617EB410F7C
:102CB000B5E74CEA05510020B0BDD4F10104B4F1F0
:102CC00020070FDAC4F12007520828BF42F00102A2
:102CD00010FA07F501FA07F7E1BF2A43E04038434D
:102CE000E1400FE0352C98DCC7F1200452EA4002A5
:102CF00020FA07F218BF42F0010231FA07F0A140B2
:102D00000A43002172F1004250F1000051EB0C0126
:102D1000B0BD8268521C8260426832B10268531CA6
:102D2000036011704168491E416070474FF4001CF8
:102D30001CEB410F94BF1CEB430F09E041EA030C6D
:102D400050EA4C0C52EA0C0C03D2994208BF904254
:102D5000704714BF8B42824270470268531C036065
:102D600011707047010040F10980F446404200F0C4
:102D700005F851F000416047010000BF09D0B0FAEA
:102D800080F18840C91CC1F58461090501EBD0219F
:102D90004005704770B44FF0004591EA030C44BF02
:102DA0006B40FFF72FBE00BF841A71EB030603D2FE
:102DB000001BB141121973414FF4001C1CEB410F71
:102DC00034BF7CEB430443E00C0DA4EB1356352ECB
:102DD00050DC45EAC323DB0A45EAC121C912B6F13A
:102DE00020050DDD63FA05F6EB4086EA0305124285
:102DF00018BF45F00105C01851F100010CD213E0D5
:102E000062FA06F5F2405540F3415A40B340F340B0
:102E10005A408018594107D349085FEA30005FEAF9
:102E2000350528BF45F0010501F58011420875F10F
:102E3000004250F1000041EB045170BC4FF4001C03
:102E40001CEB410F38BF70470020090D0905704782
:102E50001CEB410F10D252EA43060BD0BCEB410FE2
:102E600005D80C0DAB43661E342EB5DD02E0AB4336
:102E70008018594170BC704770BC7047F0B540F283
:102E8000FF7581EA030C0CF0004C15EA11541DBFCC
:102E900015EA1357AC42AF42E5E0BC41C1F3130160
:102EA000C3F31303801A994143F4801304D2641EC0
:102EB0004000494180185941C90241EA5051B1FBD3
:102EC000F3F603FB1611A2FB0675D7EBC020A94150
:102ED00002D2761E80185941C90241EA5051B1FB15
:102EE000F3FE03FB1E11A2FB0E75D7EBC020A94118
:102EF00003D2AEF1010E80185941890241EA905186
:102F0000760546EA8E2EB1FBF3F603FB1611A2FB03
:102F10000675D7EB8020A94102D2761E8018594150
:102F2000C90241EA50514EEA060EB1FBF3F603FB2B
:102F30001611A2FB0675D7EBC020A94102D2761E5E
:102F400080185941C90241EA5051B1FBF3F703FB24
:102F50001711A2FB0735D3EBC020A94167F1000789
:102F60000CBF004247F0010766F3D5274FEA1E3138
:102F7000B80814F5806412DDBD0775F1004250EB0E
:102F80000E5051EB045111F5801F5CBF41EA0C015A
:102F9000F0BD4CF07F6141F0E0410020F0BDBD0785
:102FA0006D0840EA0E5041F48011D4F10104B4F1EF
:102FB00020060ADAC4F120060200E04001FA06F316
:102FC000E1401843B24015430EE0342C13DCC6F147
:102FD000200445EA40056D0820FA06F2154321FA5F
:102FE00006F0A1400D43002175F1004250F10000B0
:102FF00051EB0C01F0BD00205FEA0C01F0BDCFB930
:1030000092185B41B3FA83F704BFB2FA82F6BF1994
:103010000B3FB7F120062FBF02FA06F3BB40C7F102
:10302000200622FA06F638BF3343BA401CB1E41931
:10303000641E33E77F4231F00041B1FA81F404BFEE
:10304000B0FA80F6A4190B3CB4F120062FBF00FAA9
:1030500006F1A140C4F1200620FA06F638BF31433C
:10306000A0403C1B1AE7AC421ABF05EA1357AF4217
:1030700012E050EA41061CBF52EA4306BFE750EA9D
:103080004107304661461CBF41EA0551F0BD52EA96
:10309000430C08BFC143F0BD00204FF4001616EBEF
:1030A000410F98BF16EB430F08BF16EB410F24BF2B
:1030B000C14305E016EB430F0CBF61464CEA0551D6
:1030C000F0BD000051EC100B00B500F003F841EC2E
:1030D000100B00BD40F2FF7C0B0D4DD0634566D256
:1030E00030B421EA035141F4801103F2FD3C5FEA60
:1030F0005C0C01D300184941890041EA90718000BD
:103100004FF440140023E202D50AB1F5100107D4B0
:103110006D081DD2091B641900184941491BF7D5D8
:103120006D080AD20919641B00184941491BEFD5E3
:103130006D08F7D301E0520817D0C01861419B1AFF
:10314000AC4100184941801AA941F4D452080AD070
:10315000C01AA1419B186C4100184941801AA9412D
:10316000E9D45208F4D15B1C6C4161084FEA33008A
:1031700001EB0C5130BC704750EA0103FBD030B476
:10318000B1FA81F311B9B0FA80F41B190B3BB3F11A
:1031900020042FBF00FA04F19940C3F1200420FA63
:1031A00004F438BF21439840D3F101039DE7634500
:1031B000E1D011F5801FDED850EA4101DBD0D943C0
:1031C00004F04ABFF446400D40EAC120490006D24F
:1031D00000F014F8004248BF6FF00040604700F074
:1031E0000DF84FF0004188428CBF084640426047CE
:1031F000400D40EAC120490080F00D8040F00040C1
:10320000490DA1F58061491C05D4D1F11F0154BFBE
:10321000C840C01770474FF00000704762F30F229C
:1032200062F31F42401810F0030308D0C91A1FD3DD
:10323000DB0748BF00F8012D28BF20F8022D13003E
:1032400030B414461546103928BF20E93C00FAD89E
:10325000490728BF20E90C0048BF40F8042D890029
:1032600028BF20F8022D48BF00F8012D30BC704760
:10327000C91818BF00F8012DCB0728BF00F8012D91
:103280007047000030B583B00121032004F04EFFE9
:10329000DFF80C4C204604F0E5FFDFF8085C284618
:1032A00004F0E0FF01208DF8040000208DF80500F7
:1032B00001208DF8060000208DF807000121284626
:1032C0000183C0460120009000A9284605F026F899
:1032D000022128460183C0460220009000A928460A
:1032E00005F01CF801208DF8040000208DF8050081
:1032F000ADF806004FF48070009000A9284605F054
:103300000DF84FF4807128464183C04601208DF8A6
:10331000040000208DF8050001208DF80600002033
:103320008DF807004FF48050009000A9204604F06B
:10333000F5FF4FF4805120464183C0460422062108
:10334000284605F039F804220721284605F034F80C
:1033500002208DF8040001208DF805008DF806008C
:1033600000208DF807004020009000A9284604F0B6
:10337000D5FF8020009000A9284604F0CFFF04224A
:103380000A21284605F018F809220321284605F0ED
:1033900013F802208DF8040001208DF805008DF847
:1033A000060000208DF807004FF48060009000A90F
:1033B000284604F0B3FF0820009000A9284604F036
:1033C000ADFF286820F0300040F010002860206831
:1033D00020F0300040F01000206037BD1FB5DFF84E
:1033E000A84CA04230D101214FF4001004F0A9FEF6
:1033F0000121022004F09AFE01214FF4001004F094
:10340000C1FE00214FF4001004F0BCFE0020ADF816
:1034100004004BF6FF70ADF806004FF48060ADF885
:103420000A004FF48040ADF80C000A20ADF8080007
:10343000DFF8580C009000A9204605F000F80121A3
:10344000204605F05FF81FBDDFF8444CA0422FD1A5
:1034500001214FF4800004F074FE0121022004F0E9
:1034600065FE01214FF4800004F08CFE00214FF432
:10347000800004F087FE0020ADF804004BF6FF70DA
:10348000ADF806004FF48060ADF80A004FF48040BC
:10349000ADF80C000A20ADF80800DFF8F00B009042
:1034A00000A9204604F0CBFF0121204605F02AF8B0
:1034B0001FBD2DE9F04192B001214FF4805004F07E
:1034C0004BFE0121084604F031FE01214FF480003B
:1034D00004F02CFEDFF8C84905221146204604F00E
:1034E0006BFF05220721204604F066FF0522062116
:1034F000204604F061FF05220421204604F05CFF11
:1035000002208DF8040001208DF805000020ADF8A0
:1035100006002020009000A9204604F0FFFE802035
:10352000009000A9204604F0F9FE4020009000A978
:10353000204604F0F3FE1020009000A9204604F07D
:10354000EDFEDFF8504B204605F03EF8DFF8485B13
:103550000020288068600120288100206881E860C0
:103560000720288200206880DFF8306B304605F0A5
:103570009BF8DFF82C7B384605F096F84FF4806016
:10358000069000210D9103210E9100210F910A91C7
:103590000890DFF8C80B0390084610900990079038
:1035A0004FF400300C9008460B904FF0C068CDF8F7
:1035B0000880402005900846049002A9304605F096
:1035C000F7F800200B90CDF80880059005F1140065
:1035D000049002A9384605F0EBF8002068802946DF
:1035E000204605F020F801220221204605F04AF885
:1035F00001221146204605F045F80121204605F03C
:1036000035F80021304605F0FAF80021384605F07B
:10361000F6F812B0BDE8F08130B589B001214FF065
:10362000805004F08EFD012005F052F901214FF485
:10363000802004F07BFD0F2005F0FAFA04461020EC
:1036400005F0F6FA0546012004F06DFD002004F0B7
:103650006AFD21460F2005F0DEFA2946102005F00C
:10366000DAFA00214FF4802004F060FD012004F01C
:10367000F9FC412004F0A7FD0028FAD04FF4807037
:1036800004F03BFD012004F04BFD05F074F93F20F0
:10369000069040F2FF1007900020059005A805F065
:1036A00021F90020029002A905F086F900208DF88A
:1036B000070001208DF804008DF805008DF8060044
:1036C00001A9002005F0F1F94FF4800005F090FB0E
:1036D0004FF48000039000208DF8100008208DF832
:1036E000110001208DF8120003A805F03FFB032014
:1036F0008DF800000D208DF8010000208DF80200EB
:1037000001208DF8030000A805F07FFB032005F0E1
:1037100040FA4FF4804005F0F6FA4FF4800005F0CF
:1037200067FB01214FF4804005F0B3FA012009B096
:1037300030BD30B585B00121084604F0F7FC012109
:103740004FF4804004F008FD00208DF810008DF843
:10375000130001200390DFF8485703A9284604F01E
:10376000DDFD4FF40064039403A9284604F0D6FD60
:103770000420039003A9284604F0D0FD0021084648
:1037800005F07CFB0B21002005F078FB02210020D6
:1037900005F074FB00208DF8080001208DF80A0068
:1037A00001900C208DF8090001A805F0DFFA0194C2
:1037B0000C208DF8090001A805F0D8FA204605F084
:1037C00017FB042001900C208DF8090001A805F0DA
:1037D000CDFA042005F00CFB28208DF800000F2006
:1037E0008DF8010000208DF8020001208DF8030003
:1037F00000A805F00AFB05B030BD30B58DB0044619
:1038000001214FF4807004F0A7FC00A804F0C0FD73
:103810000A20009003208DF8040000208DF8070096
:1038200000A9DFF87C0604F079FD05F03BFB02A857
:1038300005F07DFB4FF48030039002A805F069FB92
:1038400006A805F05CFBDFF8705B06A9284605F0CA
:1038500036FB072301222146284605F079FB01218A
:10386000284605F0BAFB0121284605F066FB0DB09D
:1038700030BD38B5DFF8404B204605F0A9FB4FF4CA
:103880007A750221204605F0BFFB002803D12846A7
:10389000451E0128F5DA2046BDE8324005F0A8BBF8
:1038A00080B50021DFF8100B05F047FB00214FF435
:1038B0008070BDE8044004F04FBC000038B504003F
:1038C00039D0012005F004F8002005F07CF94FF410
:1038D0000055042005F0F8F9012804D12846451EBA
:1038E00080B20028F5D100EE104AB8EE400ADFEDB4
:1038F000780A80EE800AF0EE000A20EE200ADFED62
:10390000750A80EE800ABDEEC00A10EE100A401E55
:1039100080B205F04EF94FF4804005F0F4F94FF411
:10392000800005F065FA012005F04DF9DFF8800B05
:103930000121416031BD012004F0CAFF0020BDE833
:10394000324005F040B9000030B4014601200023A8
:10395000DFF8682A1C469460946814F00C0FFBD1C1
:103960000C460B2C55D8DFE804F0205454540619AB
:103970002031383F464D946844F080049460DFF86D
:10398000404A4FF4C0652560146824F080741460C8
:10399000DFF8B04ADFF82C5A25603BE00346DFF839
:1039A000A44ADFF8A45A256034E094689460DFF8F4
:1039B000104A4FF4C0652560146824F080741460C8
:1039C000DFF8804ADFF8845A256023E00223DFF81D
:1039D000744ADFF87C5A25601CE00323DFF8644A50
:1039E000DFF8705A256015E00423DFF8584ADFF845
:1039F000C45A25600EE00523DFF8484ADFF8B85ABC
:103A0000256007E00623DFF83C4ADFF8B05A25605E
:103A100000E01846002B4AD003EBC3030FF2B804B2
:103A20001B1994689460146824F0807414601468FE
:103A300024F0806414609C781D8844EA8514DD7845
:103A40006D086D1E44EA05441D7944EA056454601E
:103A5000DC881D7A2D0745EA8414DFF8C05A2C60F3
:103A6000146844F0807414601468A401FCD55B7978
:103A700043F4C063DFF84849236093689360936818
:103A80009360052904D1916841F09001916005E0AF
:103A90000A2903D1916841F480519160916841F005
:103AA00002019160916801F00C010829FAD1DFF858
:103AB00094190968DFF8682A914207D2DFF8F01AF2
:103AC0000A6822F4404242F480420A6030BC7047E7
:103AD00000007A4400000047200110040F03020197
:103AE00003F00010060F01020103C00010080F01CF
:103AF000020103C00010060F01020103F0001006CE
:103B00000F01020103C80010040F02020103A80004
:103B100010020F030201030016E7002800E0401E18
:103B2000FDD170477CB50726DFF85C1588426BD164
:103B300001208DF804008DF805008DF806000020A6
:103B40008DF8070040200090DFF8845A00A928462D
:103B500004F0E4FB8020009000A9284604F0DEFB7E
:103B6000402128464183C0460F20FFF7D6FF402161
:103B700028460183C0460F20FFF7CFFF3046461E80
:103B800080B20028ECD18020009000A9284604F0E3
:103B9000C5FB402128464183C0460520FFF7BDFFF5
:103BA000802128460183C0460520FFF7B6FF40214B
:103BB00028460183C0460A20FFF7AFFF4021284670
:103BC0004183C0460520FFF7A8FF80212846418396
:103BD000C0460520FFF7A1FF02208DF80400012058
:103BE0008DF805008DF8060000208DF807004020B4
:103BF000009000A9284604F091FB8020009000A9C5
:103C0000284604F08BFB73BDDFF8841488426AD128
:103C100001208DF804008DF805008DF806000020C5
:103C20008DF807004FF480640094DFF8A45900A9D0
:103C3000284604F073FB0820009000A9284604F0F1
:103C40006DFB214628464183C0460A20FFF765FFE9
:103C5000214628460183C0460A20FFF75EFF304612
:103C6000461E80B20028ECD10820009000A928460A
:103C700004F054FB214628464183C0460520FFF747
:103C80004CFF082128460183C0460520FFF745FF69
:103C9000214628460183C0460A20FFF73EFF214601
:103CA00028464183C0460520FFF737FF08212846F4
:103CB0004183C0460520FFF730FF02208DF8040045
:103CC00001208DF805008DF8060000208DF8070012
:103CD000009400A9284604F021FB0820009000A9C8
:103CE000284604F01BFB73BD10B5DFF8E84801213E
:103CF000206804F040FC206804F072FB2068FFF7A5
:103D00006DFB05E02068FFF70DFF2068FFF766FBFD
:103D10004FF40031206804F039FC0028F2D110BDC6
:103D200030B40022838A008BDFF8A848656843EA34
:103D300000400840000255EA1020606008408842B8
:103D400000D10122104630BC70472DE9F84F0446DF
:103D50000D4616464FF420491F78DFF878884FF457
:103D60000031D8F8000004F011FC002808D04846C3
:103D7000A0F101090028F2D1FFF7B6FF00208CE086
:103D8000D8F8000001884FF6FF5211400180012150
:103D9000D8F8000004F0C2FB4FF4805AD14600204E
:103DA000C8F80400D8F800B0DFF82C185846FFF720
:103DB000B7FF002805D14846A0F101090028F1D13C
:103DC00063E0D14600222146584604F0BFFB0020A4
:103DD000C8F80400D8F80040DFF800182046FFF7C4
:103DE0009FFF002805D14846A0F101090028F1D124
:103DF0004BE03146C9B220460182C046D146002080
:103E0000C8F80400D8F80040DFF8D4172046FFF7C0
:103E100087FF002805D14846A0F101090028F1D10B
:103E200033E0012F15D1297820460182C046D146C2
:103E30000020C8F80400DFF8AC17D8F80000FFF73E
:103E40006FFF002823D14846A0F101090028F2D1D4
:103E50001BE03846471EC0B2002818D015F8011BD9
:103E6000D8F800000182C046D1460020C8F80400FE
:103E7000DFF87017D8F80000FFF752FF0028E8D1EC
:103E80004846A0F101090028F2D1002005E00121F7
:103E9000D8F8000004F04EFB0120BDE8F28F0000CE
:103EA00000000240000402402DE9F54F81B00D46AC
:103EB0001E464FF420483778DFF818474FF400319A
:103EC000206804F063FB002808D04046A0F10108F8
:103ED0000028F3D1FFF708FF0020D3E02068018815
:103EE0004FF6FF52114001800121206804F016FBBB
:103EF0004FF48059C84600206060DFF8DCA6D4F893
:103F000000B051465846FFF70BFF002805D1404648
:103F1000A0F101080028F2D191E000229DF80410E0
:103F2000584604F013FBC84600206060D4F800B087
:103F3000DFF8A8165846FFF7F3FE002805D14046E3
:103F4000A0F101080028F1D179E0BDF80810C9B24C
:103F500058460182C046C846DFF88C16206804F037
:103F600015FB002805D14046A0F101080028F3D137
:103F700065E00121206804F0D1FAC84600206060A5
:103F8000D4F800B051465846FFF7CAFE002805D1C4
:103F90004046A0F101080028F2D150E001229DF82E
:103FA0000410584604F0D2FA022FC84639D2DFF87E
:103FB0003C16206804F0EAFA002805D14046A0F13A
:103FC00001080028F3D13AE00021206804F0C7FA84
:103FD0002068018B012104F0ADFAC846DFF8101605
:103FE000206804F0D3FA002805D14046A0F101086A
:103FF0000028F3D123E02068008AC0B2287030780E
:10400000401E3070C84620680188890505D54046A5
:10401000A0F101080028F6D111E0012104F09FFA77
:104020002BE000206060DFF8CC152068FFF778FEF9
:10403000002806D14046A0F101080028F3D1002055
:1040400020E0012616E0012F0CD1012E0AD1002616
:104050003146206804F083FA2068818A018B0121AF
:1040600004F068FA2068818A490603D5008A05F8B9
:10407000010B7F1EFFB2002FE5D10121206804F063
:104080006EFA0120BDE8FE8F00540040801A060041
:104090000058004000300140B8D900208864024038
:1040A00010640240DFF850050168082933D1DFF8B9
:1040B0000C130A6842F080720A604268B2F1806FA5
:1040C00003D10A6842F080620A600A689201FCD556
:1040D0008A6842F002028A608A6802F00C02082AAA
:1040E000FAD14268B2F1806F02D10A681201FCD5A0
:1040F000DFF850130968DFF82824914207D2DFF86F
:10410000B0140A6822F4404242F480420A6000215E
:104110000160416070474168B1F1806F09D1A749E2
:104120000A6842F080620A600A681201FCD5002128
:1041300041607047DFF8C404016841F080510160BC
:10414000DFF86C0401688908890041F00101016011
:10415000DFF8AC040FF20901016070470C30014038
:1041600038B5DFF8A044208840F004002080FEF736
:1041700062F8807A012803D1012004F0ACFB02E050
:10418000002004F0A8FBDFF880548021DFF87C04D5
:1041900004F082FA002818D172B68848DFF8581463
:1041A000826802F00C020A60006800F080604860DB
:1041B000286840F00400286030BF62B6286820F00C
:1041C00004002860FFF76EFF0CE0608840F00400F8
:1041D0006080286820F00400286030BF286840F024
:1041E00004002860608840F00400608031BDDFF882
:1041F0001004006800470000DFF81414012806D0FE
:1042000010D3032809D005D3042809D00AE0DFF829
:10421000C01307E0DFF8FC1304E0DFF8FC1301E053
:10422000DFF8F8130846704710B50C46FFF7E4FFB7
:10423000214689B2BDE8104004F0BAB810B50C466A
:10424000FFF7DAFF214689B2BDE8104004F0B2B8AA
:10425000E0B500238DF8083001238DF80A30002ADC
:1042600003D10C228DF8092002E008228DF80920E4
:1042700004283CD8DFE800F0030D192222004FF497
:104280000060019028208DF800000F208DF80100BB
:104290001CE01846019010208DF8090006208DF8CA
:1042A00000000E208DF8010010E002200190072090
:1042B0008DF800000F208DF8010007E00420019028
:1042C00008208DF800000F208DF8010000208DF8E7
:1042D0000200012903D118468DF8030001E08DF892
:1042E000030001A804F042FD00A804F08EFD07BD04
:1042F0004FF40061C64804F054B810B504460121DB
:104300004FF4802003F012FF2146102004F083FCBC
:1043100000214FF48020BDE8104003F007BF10B526
:1043200001214FF4802003F001FF102004F080FCF5
:10433000044600214FF4802003F0F8FE7B2003F0B8
:1043400042FF002802D09BA0FDF7F6FF7A2003F081
:104350003AFF002802D098A0FDF7EEFF792003F085
:1043600032FF002802D095A0FDF7E6FF7C2003F085
:104370002AFF002802D092A0FDF7DEFF7D2003F087
:1043800022FF002802D08FA0FDF7D6FF7E2003F089
:104390001AFF002802D08CA0FDF7CEFF7F2003F08B
:1043A00012FF002802D089A0FDF7C6FF03F021FF0D
:1043B0002046C0B210BD000000200140003802407D
:1043C000003C024000127A003EB50C46154604221D
:1043D000014602A800F0ECF90422214601A800F0F1
:1043E000E7F90422294600A800F0E2F902A900201A
:1043F00004F0E2FA01A9002004F057FB04F050FB9E
:104400000446874A002300981946101A63EB0101FD
:10441000490241EAD051400204F020FE009084425B
:1044200005D2011B4FF0004004F00FFC37BDA04245
:1044300007D2C4F50070009909184FF0004004F04D
:1044400004FC37BDB8390020809698000024F400A1
:1044500000366E010048E8012DE9704384B004463F
:104460000D46164602A9002004F0F5FA01A9002025
:1044700004F06BFB04F014FB0090694AA2FB008976
:104480004FEA582848EAC958A2EB080000900422D5
:1044900002A9204600F08CF9042201A9284600F068
:1044A00087F9042200A9304600F082F9BDE87F8335
:1044B00034DE0020005A620280F0FA0200BD0105DD
:1044C000F0B4049C059D8E1E012E01DA0C36401EB0
:1044D0003C216427B0FBF7F7C7EB90074FF4C87C8B
:1044E000B0FBFCFC674440F26F1C0CFB06F64FF07F
:1044F0000C0CB6FBFCF6F619921940F26D1606FB91
:104500000020484A101800EB400203EBC20001FBF8
:10451000004001FB0050F0BC7047000084380240AE
:10452000018793031CB50C46016801914168009115
:104530008368C2680169491C406900F26C70FFF72A
:10454000BFFF2060002016BD10B58EB0364804684D
:1045500001A9002004F07FFA00A9002004F0F5FA78
:104560009DF8040006909DF8050005909DF8060052
:1045700004909DF80100401E08909DF802000790ED
:104580009DF803006430099002A904A8FFF7CAFF50
:104590004FF47A706043400AC0F57A700390029A33
:1045A0004FF47A73C117E3FB02010EB010BD000097
:1045B00000700040504F520050494E00424F520090
:1045C0005346540049574400575744004C50570035
:1045D00000040240183A0020010003008200070096
:1045E0008000070084000700040000100200001093
:1045F00040000010020003003CDE00204038024072
:1046000034DE00201800024010ED00E000300140D0
:104610000000024000080240000C0240001002406E
:1046200000CA9A3B7505F5FF28280040002204F0D7
:104630008DBD000008B584B00023029311B900932A
:10464000019302E00090481E019004AB00A90748C6
:104650007844183004F094FD009909B100220A70E2
:10466000002858BF029805B000BD00BFA7E6FFFFB5
:1046700000F10103810704D010F8011B89B1810703
:10468000FAD10268B2F10131914311F0803F04BFC9
:1046900050F8042FF6E710F8011B11B110F8011BB8
:1046A000FBE7C01A7047000000B585B002460FF264
:1046B000140100A805F0CCFB00A800F00CFC05B02C
:1046C00000BD00004F4525640000000030488168AF
:1046D000002904BF08B008E0EFF30982A2F1280224
:1046E000036882E8F84F83685A6000F04DFE8168E5
:1046F00059B14A6892E8F84F036002F1280282F348
:10470000098813F47F4F36D0704722482249096840
:10471000401A80F308884FF08071C1611F498161A0
:104720007FF0060E704701BC2046DFF874E000BD44
:10473000FEE71C48006818490968401A203820F034
:10474000070080F308884FF0000181F3118862B6FA
:1047500000F00DF8FEE74FF0000181F311881249D7
:10476000124A0A604FF0800181F3118870470E49A8
:104770000E4A0A6070474FF0000181F311887047BC
:1047800000BF4FF0800181F31188704700BF000027
:104790002439002050FF0020C40F03089DA1000809
:1047A000314700080000000804ED00E000000010A0
:1047B00010B50446FEF7C0F8204610BDEFF30380A5
:1047C0007047BFF34F8FDFF85407016801F4E061D1
:1047D000DFF84C2711430160BFF34F8FFEE770B540
:1047E00082B006460C462046FFF742FF0546202DC4
:1047F00005D10422314600A8FFF7DAFF06E0102DAC
:1048000016D10222314600A8FFF7D2FF002000E0B7
:10481000401CA8420EDA015D7829F9D0009A2B4697
:104820005B1E1B1ADA4002F0010230398A42EFD0D7
:10483000002076BD012076BDDFF8E8160160062075
:104840007047A0F10060DFF8E01688428041C00F99
:104850007047F8B504460D46002000902068FFF729
:10486000F0FF00281AD000A8FFF7E6FF0646002751
:1048700000E07F1CB74211D2009850F8371000EBCF
:10488000C700406840422268520810EB4200FFF720
:10489000A6FF0028EDD02F600120F2BD0020F2BD60
:1048A000F8B50C46DFF884168A6DCB6D00255908E3
:1048B0002E465F1B062F11D3482707FB01273F6CAD
:1048C000874200D20D46B84200D20B46E91849088B
:1048D00037467E1C1F2FECD300E06D1C9D4211D289
:1048E000482707FB05210E6CB042F6D34E6C86427A
:1048F000F3D34022204605F0C5FA002084F840009A
:104900000120F2BD40220FF2D861204605F0BAFA2C
:104910000020F2BDF0B591B0044600250EE03259FA
:104920000FF2C86100A805F093FA00A8FFF7A0FEF7
:10493000024600A9381D05F0A5FA6D1C05EBC5005F
:10494000C600305900280BD0371900A9FFF7A8FF7F
:104950000028E4D0402200A9381D05F093FAECE7C6
:1049600011B0F0BDF8B507460C4615460026304696
:104970000090002F1ED0002C09D1F2BD06EBC6001E
:10498000C00057F8041B490849004151761C0C2E01
:104990000FD200A93846FFF75CFF002807D138681E
:1049A000FFF74FFF002802D13F1DBC42F1D2BC42AD
:1049B000E4D23046F2BD70B5DFF874150A460B68D4
:1049C000D21A1368DFF86C45A34201D0002070BDF5
:1049D000DFF85845121DA2650968091F4822B1FB7E
:1049E000F2F1E16510F1030F02D010F1130F0AD1BB
:1049F000DFF84455A86805F07BFA0646A86805F07C
:104A000083FA811905E005F08DFA054605F08CFA68
:104A10004119DFF82855206A286005F14802206B0B
:104A2000FFF7A0FF2846FFF775FF012070BD0EB409
:104A300030B5CCB0044600A84FF49671FFF7F6FDF0
:104A400000254FAB22464FF4967100A8FFF7F2FD08
:104A500000A8FFF70DFE044609E0DFF8D014486E09
:104A6000421C4A6600A9695C05F0C6FA6D1CA542A5
:104A7000F3D34CB030BC5DF810FB38B50024DFF840
:104A8000AC5468660FF26C50FFF7D1FFDFF8B0044A
:104A900001680FF28450FFF7CAFF286D00902B6C5D
:104AA000EA6BA96B0FF28850FFF7C1FF696D0FF237
:104AB000B850FFF7BCFFEA69296A0FF2C050FFF750
:104AC000B6FF0FF2D050FFF7B2FF06E01018021D3C
:104AD0000FF2D850FFF7ABFF641C04EBC400C20018
:104AE000DFF8580411580029F0D10FF2CC50FFF72D
:104AF0009EFF286E441E002505E00918CEA0FFF792
:104B000096FF641E6D1C3C2D0AD2002C00D53B2460
:104B1000322000FB04F1DFF82C040A5C002AECD1FF
:104B200031BD70B5DFF80444216E3C2901D300216A
:104B30002166256E3221DFF80C2401FB05260A468A
:104B400001463046FFF734FE002086F83100681C2D
:104B5000206670BD2DE9F84304467646DFF8CC5355
:104B600030466FF01E01401A13D0083811D0001FD4
:104B700005D0001F0DD008380BD0001F10D104F154
:104B80002000A8622863EFF3148040F002006863FD
:104B900006E004F12000A8622863EFF31480686344
:104BA000EFF30880E862EFF30580A863EFF300807D
:104BB000E863FFF703FE2864EFF310806864EFF307
:104BC0001180A864EFF31380E864F1EE100A286501
:104BD0006E65002705E005EB870054F8271081601B
:104BE0007F1C082FF7D33046FFF7E5FE00F06CF985
:104BF000002840F0008100F001F905F09DF9F32054
:104C000005F014FAD048002406E005EB8401896819
:104C100005F0D6F93046641C061D082CF5D3A96AA8
:104C200005F0CEF9E96A304605F0CAF9341D296B62
:104C3000204605F0C5F9241D696B204605F0C0F932
:104C4000241DA96B204605F0BBF9241DE96B204605
:104C500005F0B6F9241D296C204605F0B1F9241D94
:104C6000696C204605F0ACF9241DA96C204605F0BE
:104C7000A7F9241DE96C204605F0A2F9241D296D31
:104C8000204605F09DF9241D4421204605F0B4F985
:104C9000641C5521204605F0AFF9641C4D212046C7
:104CA00005F0AAF9641C5021204605F0A5F9661C00
:104CB000002405E03978304605F082F9361D641C81
:104CC000122C16D20FF2104050F8347000EBC400D2
:104CD00040680128EED0022806D00428EED13968B9
:104CE000304605F06DF9E9E73988304605F068F996
:104CF000E4E7002709E00FF2704050F83700016840
:104D0000304605F05DF926467F1C341D042FF2D392
:104D1000002609E00FF2704050F836000168204686
:104D200005F04EF9241D761C052EF3D300260FF254
:104D300080490DE03968204605F042F9241D3F1DE9
:104D400008F1010809EBC60040688045F2D3761CE3
:104D5000072E04D259F836704FF00008F2E700270A
:104D600009E00FF2844050F837000168204605F052
:104D700027F9241D7F1C042FF3D34321204605F07F
:104D80003BF9641C4F21204605F036F9641C522182
:104D9000204605F031F94521601C05F02DF96B48DE
:104DA0004FF00054002605E02178641C05F024F93A
:104DB0003846761C471CB6F5C03FF5D3532105F0A5
:104DC0001BF95221384605F017F97C1C4121204679
:104DD00005F012F9641C4D21204605F00DF9284616
:104DE000C046C04604F10D00FFF747FE05F0ADF8E0
:104DF000574800F023F8BDE8F143E2E410B505F0B0
:104E00009BF8F32005F012F9524C3820206002E0A4
:104E10002068083020602068402807D2002105F073
:104E20009AF80928F4D0FFF7CCFCFCE7BDE8104065
:104E300005F08BB80000000025730A0038B5044661
:104E400005F07AF8F32005F0F1F83D4801682046B6
:104E500005F0B6F8241DFF21204605F0CDF8641CAE
:104E6000324D6979204605F0C7F8641CE978204680
:104E700005F0C2F8641C2979204605F0BDF8641CD1
:104E80002978204605F0B8F8641C6978204605F0BA
:104E9000B3F8641CA978204605F0AEF8F521601C33
:104EA00005F0AAF8BDE8314005F04FB880B505F02F
:104EB00043F8F32005F0BAF8AA21274805F09CF83A
:104EC000BDE8014005F041B8002023490978F529E3
:104ED00000D10120704710B50446FFF7C9FBC0B2EE
:104EE000142800D31320024621461C48FFF760FC1B
:104EF0004FF0AC30007810BD80B500F040F8BDE850
:104F000001405EE480B5FFF7D1FF4FF4C8320E498F
:104F10000020BDE8084001F0E5BF00000CED00E016
:104F20000400FA05C438002001F80200B0CC0020CB
:104F3000FC4F0508FECAFECA243900205497002001
:104F4000303A0020745F002000000608000A0608BE
:104F5000F4FF0708D4DE0020FFFF0708E4DB002091
:104F600010B500F01BF80FF2A0242046FFF780FBDD
:104F7000024621460020BDE8104001F0B3BF80B5D5
:104F800001214FF4802003F0D1F8012003F0A0FCB0
:104F900094210F20BDE8044003F03DBE80B50121FF
:104FA0004FF4802003F0C2F8012003F091FC0021AF
:104FB0000F20BDE8044003F02EBE10B500240121EF
:104FC0004FF4802003F0B2F8012003F081FC0F20A1
:104FD00003F02EFE942800D10124204610BD0000CD
:104FE0004E6F2053796D626F6C0000003078253071
:104FF000387800000A0A0A0A3D3D2043726173684E
:105000002044756D7020496E666F726D6174696FB2
:105010006E203D3D0A0000004669726D7761726541
:105020002056657273696F6E203A2025640A00006D
:105030000A49505352203D20307825782C20415089
:105040005352203D20307825782C20785053522020
:105050003D20307825782C205046534352203D2067
:10506000307825780A0000000A6372617368206D49
:105070006F6465203D203078257800000A50432079
:105080003D20307825782C204C52203D203078254A
:10509000780A00000A3C43726173682043616C6CBB
:1050A00020537461636B3E0A00000000307825785D
:1050B000202025730A0000000A0A3D3D2052656346
:1050C000656E74204C6F67204D65737361676573FF
:1050D000203D3D0A0000000008E000E00400000060
:1050E00000ED00E00400000004ED00E0040000001A
:1050F00008ED00E0040000000CED00E004000000FA
:1051000010ED00E00400000014ED00E004000000D9
:1051100018ED00E0040000001CED00E004000000B9
:1051200020ED00E00400000024ED00E00400000099
:1051300028ED00E00100000029ED00E00100000082
:105140002AED00E0020000002CED00E00400000069
:1051500034ED00E00400000038ED00E00400000041
:105160003CED00E00400000010E000E0040000005E
:1051700014E000E00400000018E000E0040000007B
:105180001CE000E00400000090ED00E004000000DE
:1051900094ED00E00400000098ED00E00400000041
:1051A0009CED00E004000000A0ED00E00400000021
:1051B00000E100E00800000080E100E008000000DD
:1051C00000E200E00800000080E200E008000000CB
:1051D00000E300E00800000000E400E03C00000004
:1051E00000EF00E00100000088ED00E00400000096
:1051F00034EF00E00400000038EF00E0040000009D
:105200003CEF00E004000000534E414D5900000007
:105210000000000038B5FFF7B4FADFF83006846804
:10522000DFF8280600210171FFF7A5FA002C2CD029
:105230002068002829D0607C2168497CC0B2814266
:1052400023D1256800E00D002968002903D04A7C9D
:10525000C0B28242F7D0FFF794FADFF8F005006998
:10526000A04203D1DFF8E40521680161E06921680B
:105270000160C861E56129682160002900D0CC6126
:105280002C6095F8410085F84000FFF774FA31BDB5
:1052900010B5FFF776FADFF8B8050468DFF8AC055B
:1052A000006A201A012832DADFF8A005046A04E057
:1052B000DFF898050462FFF75EFADFF898050078DA
:1052C000C00722D5FFF75DFADFF888050078800770
:1052D000EED5DFF88005007810F0FD00DFF87415DA
:1052E0000870FFF748FADFF86405006A8442FAD0D4
:1052F000DFF858050462DFF858050068401CDFF845
:1053000050150860DFF844154862FFF73AFA10BDFF
:1053100038B504000020A071206A10F57A60606240
:10532000E069002802D02000E1698847FFF723FAEE
:10533000E56809E0E868616A401A002801D5E86874
:105340006062FFF718FA2D68002D1AD0FFF719FADE
:105350002069002804D0687C2169497C884212D3E6
:10536000287C4007EDD5E868216A401A0128E1DA77
:10537000280000F09EF9FFF704FA287C0028D9D114
:1053800001E0FFF7FEF931BD70B504000020607048
:105390000120207004F0C6FD0078C0B2CD2802D0F4
:1053A0007D20FFF781F9A06800280CD0A068406C30
:1053B000002808D0A068406C01680800002802D0CE
:1053C000A0684068884794F8290000280BD0A0689E
:1053D00094F8281080F84010DFF870040079002855
:1053E00001D0FFF717FFDFF870040078002823D002
:1053F000DFF868040068DFF85414096A401A0028CE
:1054000004D5DFF854040021017015E0FFF7B9F965
:1054100004F0D1FE0500FFF7AEF9A068002808D01F
:10542000A068406B2818DFF838140968401AA16892
:105430004863DFF82C040560A068002808D0A06845
:10544000007C002804D1A068006B401CA1680863A0
:10545000206900282BD003E030682061FFF78BF92A
:10546000FFF78FF92669002E27D0357CEDB2002D8D
:1054700023D0680710D5F068216A411A012906DA9D
:10548000300000F016F9307C002805D10FE0616A89
:10549000411A002900D56062EDB215F0FB0010281A
:1054A000DAD1B06880684068007C0028D4D1FFF76A
:1054B00068F902E02000FFF72BFFA0790028F9D15E
:1054C000DFF890030078C00701D5FFF7E1FE002068
:1054D00060712069002839D02069007C002805D03F
:1054E0002069806880684068A06001E02069A06051
:1054F000A06890F84C00642802D08020FFF7D4F810
:10550000A068806A0078CD2802D07820FFF7CCF818
:10551000A068406C002808D0A068406C4168080072
:10552000002802D0A06840688847A06890F8400032
:1055300084F8280084F82900DFF810038068C06A26
:10554000401CDFF808138968C8620BE0002084F86B
:105550002900002084F828000020A060002020708E
:10556000FFF709F9200070BD80B504F069FEDFF88F
:10557000F4120978002806D0022810D009D3042894
:1055800015D010D314E0002902D0A320FFF78CF827
:1055900011E0002902D1A420FFF786F80BE0A62035
:1055A000FFF782F807E0A720FFF77EF803E002E0AC
:1055B000A820FFF779F801BD10B504F041FE040002
:1055C000DFF8A0020078002802D0A020FFF76CF8D6
:1055D000002C05D0022C08D003D3032C09D00CE0FA
:1055E0000EE0A420FFF760F80AE0A620FFF75CF8C1
:1055F00006E0A720FFF758F802E0A820FFF754F8CC
:1056000010BD80B504F01CFE002805D0022808D08B
:1056100006D3032809D00CE0A320FFF745F80BE0E0
:105620000AE0A620FFF740F806E0A720FFF73CF8C5
:1056300002E0A820FFF738F801BD80B5DFF80C02C2
:105640000078002802D19720FFF72EF8DFF8FC0140
:105650000078401EDFF8F4110870C0B2002827D18E
:10566000DFF8E8014068002822D0FFF78AF8DFF869
:10567000DC01406800280BD0DFF8D0010121017067
:10568000DFF8C801FFF767F8DFF8C00100210170FB
:10569000DFF8B8014078F021084202D09920FFF7E6
:1056A00003F8DFF8A8014078002801D1FFF763F87C
:1056B00001BD10B5816800290CD0DFF89011096A8E
:1056C000C16081680A684968002A00D051600A6098
:1056D00000218160017C11F003010174C9B200292D
:1056E00045D1DFF868110969002929D1DFF85C117B
:1056F0000861DFF85801007800280CD1DFF84C0170
:1057000001210170DFF84401FFF725F8DFF83C01C3
:105710000021017003E0DFF8340101214171DFF85D
:105720002C014078F021084202D09920FEF7BCFFFE
:10573000DFF818014078002801D1FFF71CF816E0C7
:10574000427C4B7CD2B29342D0D38142D1D04B7CAD
:10575000D2B29A420BD10300FFE71B68002BDED0C8
:105760005C7CD2B2A242DAD18B42F6D1BEE710BD48
:1057700010B50400627C35480078401C334908703D
:10578000394800E008000168002903D04B7CD2B200
:105790009A42F7D32160E061046000290AD0CC610D
:1057A000487CD2B2904202D194F8410000E000203F
:1057B00084F84000207C002812D1FEF7E2FF200090
:1057C000FFF777FF21484078F021084202D0992066
:1057D000FEF76AFF1D484078002801D1FEF7CBFF95
:1057E000FFF72BFF10BD10B5184804781748007854
:1057F000401C164908701548FEF7ADFF13480470A9
:1058000012484078F021084202D09920FEF74CFF60
:105810000E484078002801D1FEF7ADFF10BD10B54D
:1058200004F014FD09480121017004F07BFB040021
:105830006846C046021B203A012A03DBCD21200026
:10584000FCF7E4FC09480121017010BD2439002057
:1058500014DF002065DF002066DF00202CDF002041
:1058600018DF002067DF00203039002069DF0020CA
:10587000506002604160086070470A68F8E748605D
:105880000160704701684068F9E7F8B50600DFF885
:105890006C5802D505F15400F2BD05F15404002006
:1058A000E96E00E0096805F16C02914204D00C46F3
:1058B000A2689642F6D10120002840D1686FD0F846
:1058C0008070182004F0E6FC0446A660002F05D086
:1058D000B74203D2B6FBF7F0784300E03046E06011
:1058E000002F02D0B74200D23E462661002020752C
:1058F000DFF80C683078401C30707078F021084276
:1059000002D09920FEF7D0FEFEF73BFF7078401CD6
:10591000707005F16C012046FFF7AFFF7078F02141
:10592000084202D09920FEF7BFFE7078401E7070CA
:10593000C0B2002801D1FEF71EFFFFF77EFE204611
:10594000F2BD38B5044694F91400002829D1DFF8D7
:10595000B0572878401C28706878F021084202D09F
:105960009920FEF7A1FEFEF70CFF6878401C6870D6
:105970002046FFF787FF204604F0A4FC6878F0215A
:10598000084202D09920FEF78FFE6878401E6870AA
:10599000C0B2002801D1FEF7EEFEBDE83140FFF7AE
:1059A0004CBE31BDF8B5044608466FF00045FFF720
:1059B0006CFF064694F9050094F90410814214D155
:1059C000C01C800004F066FC074694F9050001281D
:1059D00007DB820021683846FEF7EAFE206804F003
:1059E00071FC27606079C01C607194F90400411C4F
:1059F0002171216841F82060DFF80807864202D053
:105A0000307D401C3075002008E0216851F82010DE
:105A10008A68954201DB1546A160401C94F9041088
:105A20008842F2DBF1BDF8B504466FF00046DFF8BE
:105A3000CC2602F1540502F154004FF0FF33002749
:105A400004E0664501DB664675467F1C94F904C098
:105A500067450DDAD4F800C05CF827E0DEF808C02E
:105A6000002BEED58C45ECD170463B465BB2ECE7A3
:105A7000002B11D4BCF1010F0EDB06E0216801EB15
:105A80008306766841F823605B1C94F904104E1E6F
:105A9000B342F3DB491E217102F15401884204D064
:105AA000017D491E0175FFF74CFFA560F1BD10B4E3
:105AB000C26A836B406C9C68002C02D56FF0004377
:105AC00000E01B698468002C02D56FF0004000E004
:105AD0000069984200DD1846D2685143884201DBD4
